:020000021000EC
:102000000000042079230100612301002938010028
:10201000652301006723010069230100000000001F
:102020000000000000000000000000006B23010021
:102030006D230100000000006F23010071230100E7
:1020400073230100732301009546010073230100EF
:102050007323010073230100F14401007323010085
:102060007323010073230100732301007323010014
:102070007323010073230100732301007323010004
:10208000732301002D33010073230100732301002A
:10209000C933010073230100696301007323010048
:1020A00073230100732301007323010073230100D4
:1020B00073230100732301000000000000000000F2
:1020C00073230100732301007323010073230100B4
:1020D000732301007323010073230100000000003B
:1020E00000000000000000000000000000000000F0
:1020F00000000000000000000000000000000000E0
:1021000000000000000000000000000000000000CF
:1021100000000000000000000000000000000000BF
:1021200000000000000000000000000000000000AF
:10213000000000000000000000000000000000009F
:10214000000000000000000000000000000000008F
:10215000000000000000000000000000000000007F
:10216000000000000000000000000000000000006F
:10217000000000000000000000000000000000005F
:10218000000000000000000000000000000000004F
:10219000000000000000000000000000000000003F
:1021A000000000000000000000000000000000002F
:1021B000000000000000000000000000000000001F
:1021C000000000000000000000000000000000000F
:1021D00000000000000000000000000000000000FF
:1021E00000000000000000000000000000000000EF
:1021F00000000000000000000000000000000000DF
:10220000364937480A1A02D0072291438D4635498C
:1022100035480A1A06D00722914381F30988022221
:1022200082F3148831483249324A00F045F8324886
:102230003249334A00F040F832483349334A00F01B
:102240003BF833483349344A00F036F833483449D0
:10225000344A00F031F834483449354A00F02CF85B
:1022600034483549354A00F027F8354835490022C9
:1022700000F02DF834483549002200F028F83448A1
:102280003449091A082903DB002202600430016086
:10229000314A90471F482049884205D002680430DF
:1022A00003B4904703BCF7E700208646EC460020C5
:1022B00000212A4A9047FEE7884207D0521A05D0EB
:1022C000037801300B700131013AF9D1704788422F
:1022D00002D002700130FAE77047000000000420CD
:1022E00000E0032000000420000004200C7D010019
:1022F000800B0020C40B0020D8230100D82301004C
:10230000B66601000C7D0100800B0020800B0020D0
:10231000606701006067010060670100606701009D
:10232000606701006067010060670100606701008D
:102330000C7D0100507D0100C40B0020C40B002067
:10234000C40B00204D150020501500205015002012
:102350005015002050350020A1230100F95D010037
:10236000FEE7FEE7FEE7FEE7FEE7FEE7FEE7FEE745
:10237000FEE7FEE7704700BF1048804710484FF067
:102380000701884385460F4880470F48016841F49C
:1023900070010160BFF34F8FBFF36F8FFFF730BF46
:1023A0000A480B490B4A884207D0521A05D00378D5
:1023B00001300B700131013AF9D1704775230100EA
:1023C00000000420C55F010088ED00E060670100A7
:0823D000800B0020800B0020AF
:1023D800F0B595B01C46164608460D4601F0A3FD1B
:1023E8001A9B0D93CDE9086400242346082205A909
:1023F80028460A948DF82C400C9401F0B2FD079BF6
:102408000293BDF81830ADF80C30BDF81A30ADF8AD
:102418000E309DF814308DF8114003F00302012AA4
:102428001DD1BDF81440059EC3F3C203C4F3831441
:102438008DF81030A20008230EA9284601F091FD5E
:10244800C6F3952608AB0093224602AB0EA9304688
:1024580000F0F0FB284601F06AFD15B0F0BD022A35
:10246800F8D1BDF81640C3F3C203A4098DF81030A3
:102478000827082C264628BF08263B4632460EA9C0
:10248800284601F06EFDA41B08AB02AA31460EA82F
:10249800374400F033FC002CEBD1DBE7014B012281
:1024A8001A707047050C00207047000070B50E4D7B
:1024B80006460FCD88B06C460FC495E80F0084E837
:1024C8000F0008A9002E4FF00603084A41F8203DE6
:1024D80008BF0022064801F067FE08B100F074FE4C
:1024E800044B1E7008B070BD60670100A524010090
:1024F800800B0020C40B002007B5044B0093044A4E
:102508004023FFF765FF03B05DF804FB1D250100BC
:10251800C50B002038B50D4B0D4D002018700D4827
:1025280004782D5DD2B21C4665B1043002F01EFD60
:1025380008B100F049FE084B1A7812B12378002B35
:10254800FBD038BD0C3002F0EFFAF1E7050C0020A3
:1025580024130020800B0020C40B002008B5084875
:10256800084A0378D35C3BB1043002F0A9FC002090
:10257800BDE80840FFF79ABF0C3002F07FFAF6E793
:10258800800B0020241300200120FFF78FBF0000DC
:1025980008B5FFF7F9FF0421034800F0B9FA034B27
:1025A80001225A7108BD00BF34670100940B002056
:1025B800037813F0040216D003F00303012B03D0B1
:1025C800022B09D0012070470A6800880232C0F344
:1025D800831002440A60F5E70B684288023303EB74
:1025E80092130B60EEE71046704700002DE9F04F9C
:1025F80089B00546861C08A8484C019200230F465E
:1026080000F8113D01F0D2F823683B60D4E90123BA
:102618001344226801339B1A04F21C4704F5836AA9
:1026280004F21448B3421AD3019A0023002A6DD049
:10263800012262F3010343F0040365F3891321685F
:10264800A2689DF80F000A4003320E4444F8223075
:10265800266001F0CFF8012009B0BDE8F08F012114
:10266800384601F0A5F9504601F0B8F9404601F0A6
:10267800B5F90DF120096068D4F808B049F8100DD3
:1026880000EA0B00033004EB80004946FFF790FF97
:10269800049BB0B90BEA030204EB8202D1680591EE
:1026A8009A1C013303EA0B0B04EB8B0C01F00303B8
:1026B800012B0492DCF80CB020D0022B04D0834606
:1026C8000BE00BEA0300DDE7BDF816309B09033386
:1026D8004FEA1B4B02EB93030493404601F081F948
:1026E80008B1049B63605946384601F061F9D4E9A2
:1026F80001231344226801339B1A93E7BDF8143071
:10270800C3F383134FEA1B4B1344E5E7022262F33A
:10271800010343F0040365F39F5390E7D80C0020AE
:102728000B4B0C48FF2210B59A600022C3F81824FE
:10273800C3E90022C3F8142483F8202401F0ACFB79
:10274800044610B9044801F0B3FC204610BD00BF90
:10275800D80C00204C670100A067010030B50A4C76
:1027680071B10A4A0A49121BD20800239A4201D1C0
:10277800002030BD31F82350854202D00133F5E7FF
:10278800034654F83300F4E7BC66010024670100EF
:10279800800B0020094B013903EBC000032909D83D
:1027A800DFE801F00A020406042070470079704748
:1027B800407970470020704702207047BC660100CE
:1027C800034BD3E90030C31A58425841704700BF41
:1027D800D80C00202DE9F04387B0FFF7F1FF06463B
:1027E800002840F0FC807F4DC5F81804BFF34F8FD8
:1027F8006868AC6806AF47F8100D2040033005EB59
:1028080080003946FFF7D4FE029B18B1D5F818248A
:10281800002A5FD004EA0302991C013305EB820207
:10282800234005EB8303D268DB68049302F00303BB
:10283800022B0392029162D1BDF80E306A484FEA2A
:102848009318B8F1500FC14628BF4FF0500969F3EB
:102858008F1309F10801ADF80E3001F035FB07467A
:10286800002800F0A78001F05EFB03A900230822DE
:10287800384601F06BFB029924EA01060136B600DE
:10288800B14535D95FFA89F97EB3F6B2A9EB0609E5
:10289800214003315FFA89F4B146544E05EB8101BA
:1028A80008234A46384601F051FB36B109F10803BE
:1028B80022463146384601F049FB029B08F10308DD
:1028C80003EB98030293D5F81834002B4BD1D5F8B5
:1028D80010445BE02A689A4204D86A60304607B020
:1028E800BDE8F08304EA030088E740493446D7E7A7
:1028F8002140033108234A4605EB8101DAE7012B21
:1029080058D1BDF80C303848C3F38311062928BFC5
:10291800062161F3891302318900ADF80C3001F00A
:10292800D3FA0746002845D001F0FDFA0023082213
:1029380003A9384601F00AFB0026BDF80C20C2F3B3
:102948008312B31C96424FEA8303BCD202994A1CF5
:1029580021400331029205EB81010422384601F03F
:10296800F5FA0136E9E7384601F0E1FAFFF728FF02
:1029780080F00100C6B2B1E7E3685B7923B1236850
:1029880039461B6820469847E3681C68002CF3D139
:10299800384601F0CCFA06A800F8114D00F006FF01
:1029A800D5F818340BB9029B6B609DF8070000F04E
:1029B80021FFDBE7D5F8104454B90D4B0D480E49FB
:1029C800C01AC008000440F0020000F06FF8CDE71C
:1029D800236820469B689847E3681C68ECE7002654
:1029E8007CE700BFD80C00204C670100E40C0020F5
:1029F800BC660100FC660100AC6701002DE9F74FD9
:102A0800284C80460F46924601A9012218469B464B
:102A1800D4F80890FFF7EAFD88B3019D0026A91CA9
:102A28005E4506EB010234D100211F4800F0A0FFEB
:102A380080F310006A1C02EA090204EB8202000417
:102A480005EA0903033340EA1840D06014F823204C
:102A580068F3C50204F8232034F8232066F38912AA
:102A680024F8232054F82320012167F39F2244F8F7
:102A7800232061F301026FF3820204F8232094F803
:102A880020341BB1FFF7A6FE0028FBD103B0BDE838
:102A9800F08F09EA020204EB82025AF82630D3606A
:102AA8000136BDE7D80C0020F410002000231A4698
:102AB800FFF7A4BF13B502AC012344F8042D224646
:102AC800FFF79CFF02B010BD07B5CDE90023022334
:102AD8006A46FFF793FF03B05DF804FB1FB5CDE925
:102AE8000123069B039301AA0323FFF787FF05B081
:102AF8005DF804FB1FB5CDE90023069B0293079BF5
:102B080003936A460423FFF779FF05B05DF804FBD9
:102B180030B50F49D1F81024002314463CB9C468D5
:102B2800237152B9C1F810042260184630BDE46818
:102B380025799D4206D02468F0E7D26811682160A3
:102B48001060F2E701330A2BE7D14FF0FF33ECE7CF
:102B5800D80C0020094A38B50123D2F8104482F86D
:102B680020341D4604B938BDE3685D7123682046EA
:102B78005B689847E3681C68F4E700BFD80C00203E
:102B8800037A052B10B50C460FD0437A23B1084AB7
:102B98000849204600F086FF0749204600F082FFDA
:102BA8002046BDE8104000F072BF002AF8D0F3E7D5
:102BB800F36701004E78010015680100C38873B5FA
:102BC80004460D4633B1144A00921449144A284663
:102BD80000F068FF217A05291CD0637A4BB1A088E0
:102BE800FFF7D8FD0F4B104953F82020284600F076
:102BF80059FF227A0D4BA08853F822600021FFF775
:102C0800ADFD0B4903463246284602B0BDE8704088
:102C180000F048BF02B070BDF36701000068010012
:102C2800F8670100C46701004E78010024680100BC
:102C3800186801002DE9F04385B01F460C9D00235C
:102C480006460C46904695F80C902B732946384654
:102C5800FFF7B4FFB8F1060F09D8DFE808F004124F
:102C6800181F283340003146284600F01BFF002279
:102C780029463846FFF784FF85F80C9005B0BDE873
:102C8800F08322683146284600F00CFFEFE7D4E9CC
:102C980000233146284600F005FFE8E7A3680093C3
:102CA8003146D4E90023284600F0FCFEDFE7E3685C
:102CB8000193A36800933146D4E90023284600F025
:102CC800F1FED4E723690293E3680193A3680093B4
:102CD8003146D4E90023284600F0E4FEC7E76369DB
:102CE800039323690293E3680193A3680093314631
:102CF800D4E90023284600F0D5FEB8E708292DE9D5
:102D0800F84F80460E4617461C4636D8002593F8DD
:102D18000C901D7319461046FFF750FFDFF87CA092
:102D2800DFF87CB0AE422AD918F80520594620466B
:102D380000F0B8FE0135082DF4D11649DFF864B06B
:102D4800204600F0AFFE0025AE421DD918F805A0B8
:102D5800504603F01BFC002814BF52462E22594649
:102D6800204600F09FFE0135082DEDD101222146B5
:102D78003846FFF705FF84F80C90BDE8F88F5146F8
:102D8800204600F08FFED5E70349204600F08AFE72
:102D9800E9E700BFEE670100717901006F79010072
:102DA800E8670100F0670100074B1B5C1F2B8ABF17
:102DB800064A4FF0A04203F01F03D2F80405D8409A
:102DC800C04300F001007047836801000003005011
:102DD800074B1B5C1F2B86BF03F01F0305494FF0F1
:102DE800A041012202FA03F3C1F80C35704700BF75
:102DF8008368010000030050074B1B5C1F2B86BF34
:102E080003F01F0305494FF0A041012202FA03F322
:102E1800C1F80835704700BF8368010000030050FF
:102E280008B50020FFF7E8FF0120FFF7E5FF0220C3
:102E3800FFF7E2FF0320BDE80840FFF7DDBF08B554
:102E48000020FFF7C5FF0120FFF7C2FF0220FFF7B0
:102E5800BFFF0320BDE80840FFF7BABF0A4B185C64
:102E68001F288ABF094B4FF0A04300F01F00D3F87A
:102E780004250121814021EA02000A40C3F808051F
:102E8800C3F80C25704700BF836801000003005099
:102E9800263818BF4FF0FF3070470000C10710B543
:102EA800044642D54FF08043D3F84036DA072ED592
:102EB8004FF01023D3F8043303F00703072B26D170
:102EC8001D4B0122C3F80425D3F80024002AFBD0A7
:102ED8004FF01021D1F8042322F0070242F0040237
:102EE800C1F804230022C3F80425134AD2F8003499
:102EF800002BFBD0BFF34F8F1049114BCA6802F467
:102F0800E0621343CB60BFF34F8F00BFFDE74FF084
:102F1800A0420C490323C2F81837C2F82037C1F879
:102F28002437C2F83037FFF77BFFA30742BF054BB2
:102F38000C22C3F8182710BD00E0014000ED00E0A6
:102F48000400FA05000300502DE9F04F3B4F89B00B
:102F580000263B4B1B78F5B2AB4202D809B0BDE85E
:102F6800F08F384B196811F835000124A0F12002C0
:102F7800C0F1200304FA02F924FA03F349EA030929
:102F8800D7E9002304FA00F8CDE9042302EA08028D
:102F980003EA0903134301EBC50B4CD0DDE9042315
:102FA80022EA080223EA0903C7E90023079101F08E
:102FB8008BFA0799844611F83500A0F12002C0F178
:102FC800200324FA03F304FA02F21A4304FA00F382
:102FD80000931D4B0192DDE90045D3E9002314401D
:102FE8001D4022462B465FFA8CF40025CDE90445A6
:102FF800049CA0F12005AC400394049CC0F120017E
:1030080024FA01F1039C0C43049903948140029132
:10301800DDE90245AB4208BFA2420CD19BF8011082
:103028004B1E59425941A1EB0C02DBF804305142C6
:10303800514103B1984701368BE700BFC811002002
:1030480094110020D0110020C01100202DE9F84F64
:103058000646244800F090FB002841D10123A6F140
:103068002001C6F1200203FA01FB23FA02F203FA57
:1030780006FA1D4BD3E900014BEA020B00EA0A08E5
:1030880001EA0B0958EA09021F4623D1304601F02C
:103098001BFA164BB8B1D3E9000140EA0A0441EA29
:1030A8000B05C3E90045D7E900234BEA0305104B9C
:1030B8000C4819684AEA0204C7E900450022BDE83D
:1030C800F84F00F015BBD3E9000120EA0A0421EA11
:1030D8000B05E6E720EA0A0421EA0B05C3E90045E7
:1030E800BDE8F88F9C110020C8110020C0110020F5
:1030F80098110020042A2DE9F34105460C4616468E
:103108003AD901F007F9D8B11C4B1D491D601D4B78
:10311800DFF884801C701C4B00221E600023C1E96C
:1031280000231A49C1E90023013CE4B20026032721
:10313800FF2C0CD1164A1748002100F0C7FA03E00B
:1031480001F0B0F80028DFD002B0BDE8F08123B26A
:1031580005EBC30201A992788DF8052015F8330014
:103168008DF8066042468DF8047001F0DDF8013CE8
:10317800E4B20028DCD0E7E70720E5E7D01100201B
:10318800C01100209411002098110020C8110020BF
:10319800512F0100886801005530010070B5084DB5
:1031A800084E00242B789C4201D3002070BD336860
:1031B800012113F8340001F03DF90134F2E700BFB2
:1031C80094110020D01100201FB50021039001AAFE
:1031D80044F20100CDE9011100F004F805B05DF8F2
:1031E80004FB000010B572B6FFF7B4FCFFF7F2FA63
:1031F8000028FBD1104B114C1149E41AE4082404AF
:1032080044F00100FFF752FC0E4B1B68DB0700D5AA
:1032180000BE0D4944F00200FFF748FCBFF34F8F92
:103228000A490B4BCA6802F4E0621343CB60BFF350
:103238004F8F00BFFDE700BFBC660100FC660100C0
:103248008C680100F0ED00E09868010000ED00E0F6
:103258000400FA05094A537891780133DBB29942A0
:1032680008BF0023117899421FBF037050781823B4
:1032780003FB002014BF043000207047D411002045
:1032880073B5054602A8002400F8014D0E4600F06B
:103298008DFA0DF10600FFF7DDFF90B106700A4BBD
:1032A8009DF8062045605A709DF8070000F0A2FAC4
:1032B80024B9064B4FF48012C3F80021204602B00F
:1032C80070BD0424F0E700BFD411002000E100E045
:1032D800024B4FF43C6043F001031847B06801000B
:1032E80038B50C4B0C4C4FF40032C3F88020012544
:1032F8004FF48033C4F84833C4F808336560FFF7E7
:10330800E7FF064BA56000241C60FFF7E1FF044BB4
:103318001C7038BD00E100E000100140F0120020F0
:10332800E1120020F8B51F4B1F491B680025C1F8A2
:103338004051C1F84451C1F84851C1F84C51C1F845
:103348000051C1F804514BB3D1F804451749096835
:10335800641A24F07F442F461A68A24209D8A41A96
:1033680015441A7CDE691AB11F74D3E90520904709
:10337800AEB90F4B0F4A197813788B4205D1013338
:10338800DBB2022B08BF0023137012780A4B43F8F4
:1033980022500A4B4FF48012C3F80021F8BD33467F
:1033A800DAE700BFF412002000100140F0120020FC
:1033B800EC120020ED120020E412002000E100E0F1
:1033C8002DE9F74F9E4A9F49137809789E4D9942F7
:1033D8003CD00133DBB2022B08BF002313709B499A
:1033E80012789B4B0F6853F822003B1823F07F4359
:1033F80000220B602B6816461446944613B942B156
:103408002B6006E0196881420ED902B12B60091AB7
:1034180019604FF001082B68DFF83CA200930027E1
:10342800BEB9DFF83CB260E0401A0C44D968C3F872
:1034380000C0D3F81CE031B13A1922F07F42C3E949
:103448000121DE611E4601227346D7E70026B046F9
:10345800E1E73446F6697D4A63681268DFF804C21A
:10346800A068991A21F07F41614500F2A5800144C6
:103478002160012222742A680023C4E90133E36130
:10348800002A40F0A2802C60CAE75A1C9BF8021060
:10349800D2B291428BF8002004BF00228BF80020A2
:1034A800182202FB03B32A6819799C68022974D090
:1034B80003297ED0012918D1217CB1B9DA6862606C
:1034C8001A69A2605A699B69A361624BE2601B7822
:1034D800002BC0D06160BEE79C4200F09380994603
:1034E800DB69002BF8D1002323749BF800309BF88C
:1034F80001209A42C9D12B682FB9009A934202D170
:10350800B8F1000F43D0002B79D0D3F800A0524D6A
:103518004E4BD5F804751C68DFF84C813E1B98F8B3
:10352800003026F07F4603369BB94FF48033C5F848
:103538004433C5F80433494B4FF400324FF00109C6
:10354800C3F880211A60C5F80090FFF7C1FE88F81B
:103558000090B2452CBF5444A41924F07F44C5F808
:103568004045D5F80435DB1B23F07F43E41B0333C8
:1035780024F07F44A3420AD9D5F80435C5F840356C
:10358800FFF7A6FE354B4FF40032C3F80021314B4C
:1035980000221A7003B0BDE8F08F13469146A0E7E9
:1035A8001174D2690123002AFAD1002B9DD02A6018
:1035B8009BE700231946F6E7D31A23F07F4383429B
:1035C80034BFC31A0023236053E721681368994264
:1035D80013D8591A1160E26155E7091AD8691A46D1
:1035E80038B1034618688842F7D3401A186018465D
:1035F80013462160E061DC6112E71346F2E7FFF74A
:103608006FFEC4E74C450DD1D3692B6053B90F4801
:1036180001920121CAF8081003600E4B1970FFF7D8
:1036280057FE019AE1692368C9F81C1011B10868AE
:1036380003440B602B689A4218BF012753E700BF69
:10364800EC120020ED120020F4120020F0120020ED
:10365800E4120020E01200200010014000E100E028
:10366800D4110020FEFF7F00E112002008B5FFF70B
:1036780037FE104B00200B2218809A700E4B1860F2
:103688000E4B18700E4B18700E4B4FF48012C02161
:10369800C3F8802183F814131A6002F18042A2F55E
:1036A8006F22C2F8080583F81113074BD2F80425D6
:1036B8001A6008BDD4110020F4120020EC1200207A
:1036C800ED12002000E100E0F0120020074B9B788B
:1036D8004BB132B128B10368187C20B959745A61CA
:1036E8007047072070470820704700BFD41100209A
:1036F8002DE9F7431D4FBB7805460E4690469BB310
:1037080090B304292ED9436973B3437C02A80024DB
:10371800012B00F8014D0CBF8946A14600F046F880
:103728000DF10600FFF796FDD0B101230370104B91
:103738004560D3F80435C0E90498C0E902369DF81D
:1037480006307B709DF8070000F054F824B9094B47
:103758004FF48012C3F80021204603B0BDE8F0837F
:103768000424EFE70724F7E70824F5E7D41100203D
:103778000010014000E100E0064A92783AB130B109
:10378800426922B1002202740221FFF779BD0820A4
:10379800704700BFD4110020014BD3F804057047CF
:1037A80000100140401A20F07F40704770B5EFF3D9
:1037B800108672B60C4A946801239CB993600B4B2F
:1037C8000B4DD3F8801029401160C3F88050D3F80E
:1037D800841051604FF0FF32C3F88420047006B99A
:1037E80062B670BD0370FAE7F812002000E100E04D
:1037F800FC06FFBD084B9A6810B55AB150B9EFF3F3
:10380800108172B6054A1C6814605C685460986040
:1038180001B962B610BD00BFF812002000E100E057
:103828001EF0040F1CBFEFF309800AE0EFF30880D5
:103838000549064A884201D8904202D88D464FF081
:103848000000034B184700000000042000E003209C
:1038580081380100BFF34F8F0549064BCA6802F44F
:10386800E0621343CB60BFF34F8F00BFFDE700BF9B
:1038780000ED00E00400FA052DE9F3470546FFF7DF
:1038880069F9FEF7A7FF0028FBD12D4B2D4C9F6A45
:103898002D4BE41AE408240444F00104002D49D017
:1038A800AA692A492046FFF705F9EB680193AB6836
:1038B80000932749D5E900232046FFF71BF9EB6958
:1038C80000932449D5E904232046FFF707F91C4B48
:1038D800DB6A990703D520492046FFF7E7F8DFF8A8
:1038E8008890DFF888A000264FF0010808FA06F350
:1038F8003B4206D059F826201AB151462046FFF718
:10390800D9F801361A2EF1D13A0605D50C4B1349D0
:103918005A6B2046FFF7CEF83B0405D5084B1049F3
:103928009A6B2046FFF7C6F82846FFF793FF02B0C8
:10393800BDE8F0870B492046FFF7B8F8C7E700BF96
:1039480000ED00E004670100BC660100B6680100F4
:10395800CB680100006901005B690100AA690100E8
:10396800CA69010028690100E46901009F69010032
:1039780050E8002F0B4640E8003C9CF0000FF7D1C0
:103988001046704750E8003F43EA010240E8002C27
:103998009CF0000FF6D11046704750E8002F02EA5D
:1039A800010340E8003C9CF0000FF6D11046704738
:1039B80050E8003F03EB010240E8002C9CF0000FA8
:1039C800F6D11046704750E8003FA3EB010240E8EB
:1039D800002C9CF0000FF6D1104670470121FFF72C
:1039E800D1BF0021FFF7D9BF10B590B1D0E90123AD
:1039F80001689B1ADBB20A60013BDBB2FF2B02684D
:103A080002D10020107110BD11684C1C14600B709D
:103A1800F2E70E20F7E737B5054602A8002400F8BC
:103A2800014DFFF7C3FE2A686B68116899420ED9E9
:103A3800481E106011F8014CEB68298A01FB043418
:103A4800AB6811791B1ADBB2994238BF13719DF824
:103A58000700FFF7CFFE204603B030BD37B5054657
:103A680002A8002300F8013D0C46FFF79FFE2A68D4
:103A78001368591C1160E968641A298AB4FBF1F4C7
:103A88001C709DF80700FFF7B5FE03B030BD8268D3
:103A980010B504462AB143690168006998470023B4
:103AA800A36010BD0EB403B5039929B102AA04ABF3
:103AB80042F8043D00F06AF802B05DF804EB03B088
:103AC8007047826830B40468551C8560A154D0E9F9
:103AD80001329A4202D330BCFFF7D9BF30BC7047DD
:103AE8002DE9F84F9946DDE90A431746824688468C
:103AF8000A460126BA420FD24E4538BF4E4613F049
:103B0800010B01D164B900240125B9F1010F1AD9BB
:103B180009F1FF397D43F8E7B2FBF7F20136E9E72F
:103B28009B070ED5B9F1000F0CBF30252025A64202
:103B3800EAD2013C29465046FFF7C3FF002CF6D1D4
:103B4800E1E72025F3E7B8FBF5F39F42E2D9DFF878
:103B58003890B8FBF5F3504619F8031005FB1388A5
:103B6800FFF7AFFFB5FBF7F5002DF2D1BBF1000F62
:103B780002D00CB1A64201D3BDE8F88F20215046EF
:103B8800013CFFF79EFFF4E70C6F01002DE9F74FAA
:103B9800054690460E46002900F03A8116F8011BAA
:103BA800002958D0252940F0D180002702E047F0AD
:103BB80001071646324612F8013B2D2BF7D0302B61
:103BC80004D02B2B05D147F00407F2E747F0020792
:103BD800EFE700242A2B06F101021BD1D8F80030A8
:103BE800191D1B68C8F800101C44164633782E2B84
:103BF8001CD101364FF0000A314611F8012BA2F111
:103C08003000092814D80A2303FB0A23A3F1300A39
:103C18000E46F1E712F8013CA3F130010929E5D875
:103C28000A2101FB0434303C1646D3E74FF0000A62
:103C3800324612F8011B01F0FB0068281646F8D03E
:103C4800692916D054D8582970D00ED825297DD086
:103C58003378002BA2D12B7B002B00F0D98028468B
:103C680003B0BDE8F04FFFF712BF632968D064299D
:103C7800EED1D8F80020D2F80090111D89EAE97237
:103C8800C8F80010A2EBE9724FF0010B092A61DCB9
:103C9800D34538BFD3462CB1B9F1000F01DB790702
:103CA80000D5013CBA0702D5BAF1000F04D0FB07D2
:103CB80002D4002C54D10024B9F1000F58DAC9F10C
:103CC80000092D212846FFF7FCFE07F00302022A0F
:103CD80005D1BAF1000F02D1002C4DD10024CDE955
:103CE800004753460A2249462846FFF7F9FEAFE740
:103CF800732954D016D87029AAD1D8F800301A1DC3
:103D0800C8F80020302128461C68FFF7DAFE782121
:103D18002846FFF7D6FE00220823CDE900322146C7
:103D28001022E1E775292FD0782991D1D8F8001011
:103D38000A1DC8F80020CDE90047534610222CE0A0
:103D4800D8F800301A1D1978C8F800202846FFF75F
:103D5800B8FE7DE70A230BF1010B92FBF3F295E71E
:103D6800A345A9D220212846013CFFF7AAFEA0E7D7
:103D78007807AAD52B21A5E7A345B0D2302128463C
:103D8800013CFFF79EFEA7E7D8F80010CDE90047F1
:103D98000A1DC8F8002053460A220968A4E7D8F883
:103DA80000301A1DC8F80020F907D3F8009012D582
:103DB8004F46A7EB090B17F8011B41B9A345BFF400
:103DC80047AF20212846013CFFF77BFEF6E728464F
:103DD800FFF777FEEDE7B9F1000F17D0484602F07C
:103DE80036FC0746BC4200D954B909F1FF3919F825
:103DF800011F00293FF42CAF2846FFF762FEF6E7C3
:103E080020212846013CFFF75CFEEBE74F46E9E737
:103E180003B0BDE8F08F2DE9F047B0F8069044797B
:103E2800D2F800A09DF8208009FB04F4043C064663
:103E38000AEB0300A0420F4688BFA4EB030A191D32
:103E4800C2F800A0B1FBF9F509FB15114DB9A9EBB2
:103E58000104544528BF5446BAF1000F04D1BDE807
:103E6800F0873668013DF1E704317B197018224666
:103E7800B8F1000F0ED001461846AAEB040A02F06A
:103E88008AFBD145254436684C464FF0000128BFCF
:103E98005446E1E71946F0E7FFF7A6BDF8B54679BD
:103EA8000146721E0546002393422D6803D3002461
:103EB800A64202D8F8BD0133F6E70F682846FFF797
:103EC800CDFD01343946F3E72DE9F843068ACD1CC8
:103ED8000746FFF7A0FD043E35440446B5FBF6F55A
:103EE800F0B14FF48073EDB28380C680013D076066
:103EF80081464FF00008A84512D23846FFF78BFDDF
:103F0800064648B163790133637108F10108C9F8BD
:103F1800000007608146EEE72046FFF7BFFF344602
:103F28002046BDE8F88301210430FFF741BD10B5F4
:103F3800012104460430FFF746FD10F0FF0F04D1BD
:103F48002046BDE81040FFF7A9BF10BD1FB504AC5F
:103F580044F8042D002200922246FFF75CFF04B0CB
:103F680010BD1FB504AC44F8042D0122009222466E
:103F7800FFF751FF04B010BD33DF704741DF7047D2
:103F8800064B10B500241C70054B1C60BFF35F8FF7
:103F98000449054800F095F8204610BD0D1300208F
:103FA800101300201C6F01000413002007B502A89D
:103FB800002300F8013DFFF7F9FBF1EE103A23F07A
:103FC8009F03E1EE103ABFF35F8F0A4B4022C3F81C
:103FD80084219DF80700FFF70DFC02F0A7F920B136
:103FE800FFF7CCFF03B05DF804FB20BF40BF20BF44
:103FF800F8E700BF00E100E07047000070B5264C0C
:10400800054601212046FFF7B3FCBFF35F8F264624
:1040180038B9042D0AD0214B1A781AB1BFF35F8F33
:10402800206070BD1E4A157001221A701D4C1C4D6F
:104038006368BBB9FEF78EFDFEF7CCFB0028FBD109
:10404800174B1B78023B012B14D8BFF34F8F16492F
:10405800164BCA6802F4E0621343CB60BFF34F8F7C
:1040680000BFFDE71B682878984788B1204600F014
:1040780032F8DDE702F05AF908B1FFF77DFF4FF09B
:1040880080430122C3F80025BFF34F8F20BFFDE70F
:10409800BFF35F8F3060C4E7101300200D130020BA
:1040A8000C1300200413002000ED00E00400FA05C2
:1040B800836800225A609A60C3E90422DA601A60B1
:1040C80070470B684A684360934208BF0023016049
:1040D80008BF43607047436843B1026891685268FB
:1040E8000B449342436004BF0023436070470000C1
:1040F8000D4930B5A1F594720225914201D80020EE
:104108000EE08B1ADB1093FBF5F302EBC30452F8B5
:104118003330834205D802D204F10802EDE7606823
:1041280030BD2146E9E700BF6C70010008B5FFF714
:10413800DFFF024B002808BF184608BD316F010099
:104148001FB503788DF8003043680193037A8DF822
:104158000830C3680393054A054B684653F8213075
:1041680052F82110984705B05DF804FB141300209D
:104178001C1300201FB503788DF8003043680193A5
:1041880083688DF80830C3680393054A054B684671
:1041980053F8213052F82110984705B05DF804FB18
:1041A800141300201C130020F0B5194B0678DFF813
:1041B80070E043F82620174B94460A6943F82620F6
:1041C8004B7F0EF806300C4607460FCC89B06D467B
:1041D8000FC594E80F0085E80F001EF80630049616
:1041E80053B1BCF1000F0C4A694608BF0022381DC4
:1041F80000F084FD09B0F0BDBCF1000F074A694624
:1042080008BF002207F10C0000F05EFBF2E700BFD8
:104218001C13002014130020494101007D410100B6
:104228002413002000F1804000F5C040002382B034
:10423800036003680193019B02B0704703681F2B5A
:1042480083BF03F01F03036001484FF0A04070478D
:104258000003005007B502AB43F8040D1846FFF7FA
:10426800EDFF019B00EB8300D0F8003723F44033C7
:10427800C0F80037D0F8003743EA0141C0F800170A
:1042880003B05DF804FB0000054B4FF0FF32072830
:1042980043F8202084BF1B1883F85820704700BFBC
:1042A8002813002010B5174C94F86A3043BBFF213F
:1042B800E2180133302B82F83010F9D10021C8B24E
:1042C800FFF7E2FF01310C29F9D1062200210E483F
:1042D80002F08AF90D4BC02283F806234022C3F866
:1042E80080214FF4BE701A60FFF79CFF084B4FF017
:1042F8000042C3F80423012384F86A30002010BD6B
:104308000820FCE7281300208C13002000E100E0BF
:1043180000600040034B93F86A00003018BF01208A
:10432800704700BF28130020F7B5404F3B180446DC
:1043380093F93030002B944675DA8B78C3F3400339
:10434800002B15BF0025082508200C20854202D126
:10435800042003B0F0BD57F8252001324FEA850646
:1043680049D1381947F825C080F8305013B97B195E
:1043780083F858408B785A071BD4D8073DD502A834
:1043880040F8084DFFF75AFF009B00EB8300D0F878
:10439800003723F00203C0F800372548E20804F08C
:1043A800070C012303FA0CF310F802C043EA0C03CC
:1043B8008354887891F800C010F002002AD006F1E2
:1043C800804303F5C0432402D3F8102522F44F326A
:1043D80022F44072C3F810254FEA0C4CD3F810258C
:1043E80004F47C540CF4403C44EA0C041443C3F831
:1043F80010450020ADE70135A8E702A84A7840F843
:10440800044DFFF71BFF019B03F5E073920040F892
:104418002320C2E7083D3D4495F8604044EA8C1CDF
:1044280085F860C095E7082093E700BF28130020AF
:104438008C13002073B5224C2518064695F93020B8
:10444800072A1ADD224492F858309B09032B10D111
:1044580002A840F8046DFFF7F1FE019AD0F8103574
:10446800D340DB0707D402213046FFF7F3FE02B042
:1044780070BD012BF7D00321F6E7D3B2072BF6D88E
:10448800930003F1804303F5C043D3F8100540F0CF
:104498000100C3F8100502F14000800080B2FFF768
:1044A800C1FE0029E3D095F9303054F82330002BB1
:1044B800DDD0012303FA02F2024BC3F80423D6E746
:1044C800281300200060004007B502AB43F8040D34
:1044D8001846FFF7B3FE019BD0F81005D84000F04E
:1044E800010003B05DF804FB2DE9F04F002489B00A
:1044F800CDE902445F4A604E604D01211368A2F580
:10450800C040012B80B206D1D6F804330B4202D04A
:10451800FFF788FE0C430432AA424FEA4101EDD16D
:10452800574B1B68012B0ED14FF4BE70FFF77AFE74
:104538004FF0A04344F00044D3F810350293514B98
:10454800D3F81035039314F0FF0F1AD04E4F0025FF
:104558000126344210D0AB0003F1804303F5C04379
:10456800D3F81005D3F8101557F82530C0F30520F7
:10457800C1F3014103B198470135082D4FEA4606BA
:10458800E7D1002C72DA04AE0023049373604FF075
:10459800FF33CDE906333C4F4FF0010800252C4688
:1045A8007B1993F96020531C47D0D2B222F0C0097E
:1045B80008A84FEAD90300EB030B02F007011BF828
:1045C800080C08FA01F1084237D007EB09009209F4
:1045D80090F9300057F820A0BAF1000F05D1032A4E
:1045E8002BD1F05C0843F05401E0032AF9D001A86C
:1045F800CDF80490FFF722FE019B03F5E07350F815
:1046080023301BF8180C0842C3F3014305D0022BD2
:1046180013D1032A0BD1114604E0032B0DD1032A31
:1046280005D102214846FFF715FE0134E4B2BAF17C
:10463800000F02D011464846D0470135042DAFD1AE
:10464800A4B14FF0A0430299D3F8102503F54073A5
:104658009142D3F8103502D10399994206D00292BB
:104668000393049A059B0692079397E709B0BDE860
:10467800F08F00BF006100400060004020610040F2
:104688007C6100400003005028130020014B1B6888
:10469800184700BF941300200D4B984237B50D46BC
:1046A80010D102A8002300F8013DFFF77FF8094B5D
:1046B8001C7914B901221D601A719DF80700FFF7D3
:1046C80099F814B9002003B030BD1120FBE700BFF2
:1046D8000020004094130020034B984201BF034B75
:1046E80000221A601A7170470020004094130020BD
:1046F8000023435082B043580193019B02B0704796
:104708000A4610B54FF48E71FFF7F2FF136A9168ED
:10471800C95C136A01331362C0F81C1510BD8B699C
:104728000A4610B54FF4847123B9FFF7E1FFD0F8BA
:10473800183510BDFFF7DCFF536AD168D0F81805AB
:10474800C854536A01335362F3E700001FB50123CD
:104758008DF80030044BCDE90110D3E9001268460A
:10476800904705B05DF804FB9C13002030B54C4A17
:10477800D2F8043313F4007F85B015464FD0D2F831
:104788002431002B4BD04FF492711046FFF7B0FF45
:104798004FF40173C2F80833424B93F8291009B952
:1047A800012151603E4902228DF80020D1F8802471
:1047B800C1F8802403929A690292DA680192002271
:1047C800C3E906226846D3E9001290473448D0F876
:1047D8001C315BB133490A6A4B699A420A464BD28B
:1047E80091F82830002B47D1FFF78AFF2C4AD2F8DE
:1047F800443193B14FF4A2711046FFF779FF294B6A
:1048080093F8291009B1012111609A692AB100228F
:104818009A61586AD968FFF799FF05B030BDD5F895
:1048280004335B07D2D5D5F80831002BCED01D4C08
:104838001B482146FFF773FF636AA2699A42234621
:10484800C4D1E269E1684AB12369E3600023606A80
:10485800A261E3616362FFF779FFB7E794F8292063
:104868000AB901226A600E4A4FF40170C2F80803BF
:1048780000229A61586AEEE74FF48E710848FFF7F4
:1048880037FF51690029B1D00023029191688DF852
:104898000030019153616846D2E900139847A5E7B3
:1048A800002000409C1300201F2886BF00F01F0036
:1048B800044B4FF0A04300F5E070022243F820209B
:1048C800704700BF000300502DE9F843664B047998
:1048D80091462C2202FB0432064692F82A200D4605
:1048E8009846002A40F0BC8060490068FFF7D4FE73
:1048F8000746002840F0B68029684A1C10D01F29B6
:1049080087BF01F01F035A4A0B464FF0A04201200F
:10491800984003F5E073C2F80805032042F8230025
:104928006868431C0DD01F288BBF00F01F03034687
:104938004F4A4FF0A04203F5E0734FF0000C42F8E5
:1049480023C03368AA6995F814C0C3F824256A7D82
:10495800BCF1010F4CEA0202C3F86C25C3F8140538
:10496800C3F80C152BD1A968481C0DD01F298BBF83
:1049780001F01F020A463E484FF0A04002F5E072DF
:104988004FF0000C40F822C0E868421C13D01F28E2
:1049980087BF00F01F0C364A84464FF0A0424FF004
:1049A800010E0EFA0CFE0CF5E07CC2F808E54FF09B
:1049B800030E42F82CE0C3F80805C3F810152C23A1
:1049C800634308EB0302C2F804902A6948F80320FD
:1049D800B9F1000F31D04FF48E7130682D7FFFF799
:1049E80087FE30684FF4A271FFF782FE3268214BD0
:1049F800C2F80433120B53B2002BA8BF03F1604076
:104A08004FEA53134FEA4511BABF1B4802F00F058E
:104A180000F561404FEA8303C9B203F16043B4BFB4
:104A2800415580F8001303F5614302F01F0201218C
:104A380001FA02F2C3F880211A6033680422C3F82D
:104A480000252C2303FB04830022C3E9062283F8F4
:104A580029205A61012283F82A203846BDE8F883C4
:104A68000827FAE71127F8E79C130020754701008B
:104A7800000300508000020014ED00E02DE9F04131
:104A880003680479254D0022C3F800252C2202FB77
:104A980004520646526872B1214AC3F80823190B1A
:104AA8004AB20120520901F01F0100FA01F1203237
:104AB8001C4840F82210D3F80C05D3F81485D3F815
:104AC8000815D3F810754FF0FF329042C3F814253B
:104AD800C3F80C25C3F80825C3F8102501D0FFF743
:104AE800E3FEB8F1FF3F02D04046FFF7DDFE7A1C37
:104AF80002D03846FFF7D8FE4B1C02D00846FFF715
:104B0800D3FE3068FFF7E8FD2C2303FB0454002391
:104B180084F82A306360BDE8F08100BF9C13002050
:104B28008402020000E100E02DE9F843224F0679F3
:104B38004FF02C0909FB067480466569002D37D1B2
:104B48006261A16025624FF48E71006884F8285074
:104B5800FFF7CEFDD8F80000012383602146FFF758
:104B6800CFFD6368A1462BBBD8F80050226A636961
:104B78009A4212D3D8F80030D3F81C21002AFBD06F
:104B88000122DA6000202C2303FB067600237361E0
:104B9800BDE8F88394F8283043B9D5F81C31002BC8
:104BA800F8D049462846FFF7ABFDDFE70F20EAE7D4
:104BB8001120EDE72846EBE79C1300200023435023
:104BC80082B043580193019B02B070471FB501237F
:104BD8008DF80030054B8DF8080001916846D3E93F
:104BE8000012904705B05DF804FB00BFC813002011
:104BF8007FB5384AD2F82461002E49D010464FF4C8
:104C08009271FFF7DBFF02238DF80030D2F8803471
:104C1800C2F880340393D2F83C358DF808302E4B17
:104C2800DA6801920022C3E906226846D3E9001235
:104C38009047284AD2F8443173B14FF4A271104614
:104C4800FFF7BCFF244B996931B100219961D2F873
:104C58003C05D968FFF7BAFF1E4AD2F82031ABB13C
:104C68004FF490711046FFF7A9FF1B4B596969B1C2
:104C7800D2F84C158DF80810002299688DF800209C
:104C880001915A616846D3E90012904704B070BD9B
:104C9800D2F81031002BCCD04FF488711046FFF7B2
:104CA8008DFF0D4BD2F83C0599698842C1D1DC696A
:104CB800D96864B1D2F8005225F02005C2F8005234
:104CC8001A699C61DA60DE61FFF780FFB1E79C61D9
:104CD800FAE700BF00200040C81300201F2886BF45
:104CE80000F01F00044B4FF0A04300F5E0700222D3
:104CF80043F82020704700BF000300502DE9F84317
:104D08006A4B06799146242202FB0632044692F841
:104D180020200D469846002A40F0C4806449006867
:104D2800FFF7BAFC0746002840F0BE802868421CFE
:104D380010D01F2887BF00F01F035E4A03464FF0BC
:104D4800A0420121994003F5E073C2F80815032138
:104D580042F8231069684B1C0DD01F298BBF01F046
:104D68001F030B46534A4FF0A04203F5E0734FF080
:104D7800000C42F823C02368AA6995F814C0C3F848
:104D880024256A7DBCF1010F4CEA0202C3F86C25A8
:104D9800C3F80C05C3F814152BD1A968481C0DD00D
:104DA8001F298BBF01F01F020A4642484FF0A0405E
:104DB80002F5E0724FF0000C40F822C0E868421C8F
:104DC80013D01F2887BF00F01F0C3A4A84464FF0C3
:104DD800A0424FF0010E0EFA0CFE0CF5E07CC2F872
:104DE80008E54FF0030E42F82CE0C3F80805C3F8B5
:104DF80010152423734308EB0302C2F804902A69B0
:104E080048F80320B9F1000F3BD04FF488712068AF
:104E18002D7FFFF7D3FE4FF490712068FFF7CEFE89
:104E28004FF492712068FFF7C9FE20684FF4A27111
:104E3800FFF7C4FE2268204BC2F80433120B53B2AA
:104E4800002BA8BF03F160404FEA53134FEA451106
:104E5800BABF1A4802F00F0500F561404FEA830314
:104E6800C9B203F16043B4BF415580F8001303F59C
:104E7800614302F01F02012101FA02F2C3F8802106
:104E88001A6023680822C3F80025242303FB06833D
:104E98000022C3E906225A61012283F820203846FD
:104EA800BDE8F8830827FAE71127F8E7C8130020B8
:104EB800F94B0100000300501003020014ED00E05C
:104EC8002DE9F04103680479254D0022C3F8002537
:104ED800242202FB04520646526872B1214AC3F8E2
:104EE8000823190B4AB20120520901F01F0100FAE8
:104EF80001F120321C4840F82210D3F80C05D3F8F1
:104F08001485D3F80815D3F810754FF0FF32904286
:104F1800C3F80C25C3F81425C3F80825C3F81025D1
:104F280001D0FFF7DBFEB8F1FF3F02D04046FFF7A4
:104F3800D5FE7A1C02D03846FFF7D0FE4B1C02D0B3
:104F48000846FFF7CBFE3068FFF7C6FB242303FBB8
:104F58000454002384F820306360BDE8F08100BF6A
:104F6800C81300201003020000E100E001F06043D4
:104F7800B3F1005F2DE9F041074632D11C4B0679A9
:104F8800242505FB063598466C6964BB6A61A960EF
:104F980000684FF49071FFF711FE4FF4AC71386858
:104FA800FFF70CFE3B686A69A968C3F84415C3F8A3
:104FB800482501229A606A68BAB9D3F82011D3F853
:104FC800582149B9002AF8D00F20242303FB06866C
:104FD80000237361BDE8F081002A14BF0F20002070
:104FE800F3E71020F6E71120F4E72046F2E700BFC8
:104FF800C8130020C2DF7047CDDF7047D1DF70478C
:10500800D3DF704710B504468378827A41780078F8
:10501800FFF7F0FFA8B923796279E1882078FFF7D4
:10502800EFFF70B9E1782078FFF7E6FF48B9A37879
:10503800DB0706D4218921B12078BDE81040FFF7AD
:10504800DDBF10BD38B51E4B1E4C02781E49E41A50
:10505800E4082404054644F003042046FDF72AFD2D
:105068006B7903F0FF026BB1802A0DD117492046F6
:10507800FDF71CFD2B79DBB2012B14D0022B1DD0C0
:10508800134911E01349F2E76B79DB0903D01249A0
:105098002046FDF70BFD6A79104902F07F02204691
:1050A800FDF708FDE6E70E492046FDF7FFFC6A8894
:1050B8000C492046BDE83840FDF7FCBC0A49F3E737
:1050C800BC660100DC6601003C7401004C74010000
:1050D800FB740100627401008A740100AC74010061
:1050E800D27401000B750100E4740100C278837862
:1050F80043EA02234B8003794B7143790B70837920
:105108000B710846FFF79EBF38B50C4B0C4C027864
:105118000C49E41AE4082404054644F00304204634
:10512800FDF7C8FC6A8808492046FDF7C3FCAA8831
:1051380006492046BDE83840FDF7BCBCBC66010006
:10514800E46601002F7501005475010079750100AE
:1051580038B50D4604460222FF2101F045FA2B78A6
:10516800A3706B889BB2E3701B0A2371AB889BB258
:1051780063711B0AA3712846BDE83840FFF7C4BF16
:1051880038B50F4A0F4C0378A41AE4082404FF2BFF
:10519800054644F003040CD0037842780A492046B7
:1051A800FDF792FC6A6809492046BDE83840FDF7DA
:1051B80081BC427806492046FDF77CFCF2E700BF37
:1051C800BC660100EC660100B475010001760100BF
:1051D800DC750100FF2202700A7842704A788270FA
:1051E8004A68C2700346100A1871100C120E5871E2
:1051F8009A710846FFF7C4BFCCDF70470149FFF733
:10520800FBBF00BF9C0B002000234FF6FF7203700A
:10521800837082808371C37170470378023B022BCD
:105228009DBF83780B7001200020704700780338F9
:1052380001288CBF00200120704710B591F82D304F
:10524800052B0446084629D0802B11D0032B22D1E8
:105258002378023B012B1ED8E379C3F30602D1B2AF
:1052680001F17F0060F30603E371A1B9227012E037
:10527800CB78462B0FD1A11C0430FFF737FFA37959
:10528800012B08D1E37933B11A0605D5802B0CBF61
:1052980004230323237010BD0223FBE72378042B88
:1052A80004BF00232370D3E7C4DF7047C7DF70470C
:1052B800C8DF704710B500230A78C3600C46104950
:1052C80003744382436103760385C0E90B33837615
:1052D800FF23C361027000F1200303C983E80300C0
:1052E800084B09480949C01AC008000440F00300E7
:1052F800FDF7E0FB2046BDE81040FFF783BE00BF86
:105308003C760100BC660100F46601005C76010091
:10531800F7B5456804460E46281D0DF10701FFF74D
:105328007CFF98B9EB78402B05D1AB788DF8073026
:105338004123EB700AE0412B32D1AB788DF807306E
:10534800502B0CBF51235023AB70E870354B3648B7
:105358009DF807203270C01AC0080004334940F095
:105368000300FDF7A7FB3378102B49D027D8022B71
:1053780031D0032B38D0012B10D104F12807751C2C
:1053880004F10C013A46284600F046F93946284609
:1053980000F0DAF8A36831782046984703B0F0BDEA
:1053A8002A7852B169788DF80710D90742BFB2FA46
:1053B80082F252092A700133BBE70121F3E7502B2F
:1053C80024D0512B28D0162BE8D104F11801701CD9
:1053D80000F04AFADEE7751C04F11001284600F0D7
:1053E800DDF904F12801D2E7751C04F11001284603
:1053F80000F0D4F904F11401284600F043FAF0E76C
:1054080004F12801701C00F055F9C3E704F11A01F2
:10541800701CFFF79DFEBDE704F12001701CFFF72B
:10542800D9FEB7E7BC660100F46601007476010096
:10543800936870B504468360506860600430154610
:105448000E46FFF7E1FE63680022DA701A702A78C8
:105458005A705022314620469A70BDE87040FFF7D6
:1054680029BF73B590F82C200B789A4206460C4653
:105478001FD14D68043501462846FFF7DEFE96F831
:105488002D20062A15D80123934013F0680F10D059
:1054980069462046FFF73CFF2846FFF7C7FE2378FA
:1054A8006A46082138B11846FFF702FF08B1FDF730
:1054B8008BFE02B070BD1846FFF7F8FEF6E7000055
:1054C80013B504466946FFF723FF6A46082120788A
:1054D800FFF7ECFE08B1FDF777FE084B0848227885
:1054E8000849C01AC008000440F00300FDF7E2FABA
:1054F80000212078FFF7D8FE02B010BDBC6601007D
:10550800F46601004476010010B48022642400236C
:10551800E0FB04231946130A43EA016307480849D4
:10552800B3FBF4F2401AC008000404FB1233054927
:105538005DF8044B40F00300FDF7C6BAF4660100BD
:10554800BC660100907601000B88C2780371190AC5
:1055580061F30302C2701846FFF7D6BF2DE9F84F72
:10556800D2E9012A4FF47A78A0FB08450A230826D5
:1055780000274FF0640B4FF0000CE1FB08BCE3FB85
:10558800026714F110026146C2F34F150023C822C6
:10559800584600F03BFFB5FBF8F2194B194C1A4975
:1055A800E41AE408240444F0030408FB1253814677
:1055B8009BB22046FDF788FAB9FBF8F2204608FBB3
:1055C80012931249FDF780FA300940EA0770390949
:1055D8000A22002300F01AFF002315463046A022B5
:1055E800394600F013FF2B46024609492046FDF7CD
:1055F8006BFA524620460749BDE8F84FFDF75ABAFC
:10560800BC660100F4660100CC760100FC7601005E
:105618002C7701005C770100F0B40C464988566885
:10562800C823B1FBF3F703FB171303703309837027
:10563800C378477066F30713C37093684371237880
:1056480083712078F0BCFFF789BF000042682DE91C
:10565800F0410A2308260027E3FB0267114C124B8E
:1056680005463009E41A40EA077039090A2200237E
:1056780000F0CCFE002390463046A022394600F0C8
:10568800C5FEE408240444F00304024643462046C9
:105698000649FDF719FAAA6805492046BDE8F04110
:1056A800FDF708BAF4660100BC66010085770100C1
:1056B800B47701008B6803700246180A1B0C5070FF
:1056C80093704B681B01180AD3701071180C1B0ECD
:1056D800507193710846FFF7B9BF000041882DE962
:1056E800F04108220A260023E1FB06231F4C204B29
:1056F8002049E41AE408240444F003040746204639
:10570800C2F30F15FDF7D2F93B781B4A1B4903F08A
:105718000303204652F82320FDF7CCF93B78184ABA
:105728001849C3F38103204652F82320FDF7C2F934
:105738003B78154A1549C3F30113204652F8232034
:10574800FDF7B8F93B78124A12499B09204652F8EE
:105758002320FDF7AFF9B5FBF6F206FB12532046FE
:105768009BB20D49BDE8F041FDF7AEB9F466010002
:10577800BC6601002078010010780100287801003B
:10578800F077010051780100E07701007A78010094
:1057980000780100A3780100CC78010030B44C886F
:1057A8000D780346FF220270427020099870D8785D
:1057B8009D7164F30710D8705A71084630BCFFF722
:1057C8008DBF000038B51E4B1E4C1F49E41AE40873
:1057D8000546240444F00300FDF768F92B78DA073E
:1057E80044F0050403D519492046FDF75FF92B78E5
:1057F8009B0703D516492046FDF758F92B7858071B
:1058080003D514492046FDF751F92B78190703D51C
:1058180011492046FDF74AF92B78DA0603D50F49D6
:105828002046FDF743F92B789B0603D50C49204603
:10583800FDF73CF920460B49BDE83840FDF736B97D
:10584800BC660100F46601004E790100737901001D
:1058580079790100837901008A790100937901003F
:105868009C790100C876010010B50B7800F8013B5F
:105878000C460622FF2100F0B7FE2046BDE8104086
:10588800FFF7A0BF0A684271044B05480549C01AD2
:10589800C008000440F00300FDF70CB9BC66010025
:1058A800F4660100A679010008B5002000F0C2F9ED
:1058B80008B1FDF789FC012008BD000008B5164BAA
:1058C80090F82C201B789A420DD1144B1B780BB101
:1058D800402B08D190F82D30072B16D004D8012B77
:1058E80018D0022B0DD008BD082B0CD0802BFAD174
:1058F800072000F09FF90028F5D0BDE80840FDF723
:1059080063BC0B20F5E70120F3E70020BDE8084061
:10591800FEF774BB0020ECE7A40B0020EC1300207A
:10592800034B1870034B0020197000F083B900BFB7
:10593800A40B0020EC130020064B1B78102B05D07D
:10594800402B00D023B9012000F074B90220FBE7F6
:1059580000207047EC1300200220FDF77FBA0000FA
:1059680008B5094B1B7853B10020FDF745FA012013
:10597800FDF742FA0320BDE80840FDF73DBABDE84F
:105988000840FDF74DBA00BFEE130020F8B57B4C78
:10599800237805461BB100232370FFF7E1FF172D7D
:1059A80000F28880DFE805F00C171743546576800D
:1059B800888D888D959A9A9A9A9AC4C9D1D9E4E41F
:1059C800FFF7CEFF6E48FDF7D7FE6E4B0022044668
:1059D8001A702046F8BD0020FDF7E6F9F8B100205E
:1059E800FDF70AFA022D0CBF4FF4E1614FF47A611A
:1059F800644B1D704FF400404FF4FA740025E0FB2F
:105A080001454FF47A7200232046294600F0FEFC37
:105A1800002201465A48BDE8F840FDF769BEFDF787
:105A2800D7F9022D0CBFC8214FF4C871E0E7002058
:105A3800FDF7BAF940B10020FDF7DEF94FF44871DF
:105A4800504B03221A70D5E7FDF7C2F9C821F7E7D2
:105A58000020FDF7A9F938B10020FDF7CDF94FF482
:105A68007A61484B0422EDE7FDF7B2F94FF4C871AB
:105A7800F7E70020FDF798F948B10020FDF7BCF9D9
:105A8800404B05221A7041F69A110022C2E7FDF731
:105A98009FF9F5E70020FDF7E1F93A4B06221A7065
:105AA800002240F6CD41B5E70020FDF791F9354BCE
:105AB80007221A7000248CE701202070FDF7CEF928
:105AC800EEE701202070FDF7C9F900224FF480416C
:105AD800A0E7FDF7B4F92B4B0C22EAE72A482B4E36
:105AE800FDF74AFED5F1110504461CD0D8B9012DA1
:105AF80013D0C8235D434FF400474FF4FA700021D8
:105B08004FF47A720023C7FB050100F07FFC2246A0
:105B180001461D48FDF7ECFD04460220FDF758F943
:105B28000123337055E70220FDF766F90023F8E7F3
:105B3800FFF716FF134B1222BBE7FFF711FF0020F8
:105B4800FDF746F90F4B1322B3E7FFF709FF0120D2
:105B5800FDF73EF90B4B1422ABE7FFF701FF0020DE
:105B6800FDF736F90120FDF733F9064B1522A0E7BA
:105B7800FDF765F9034B1D709CE700BF5814002022
:105B88003014002060140020F0130020EE130020D1
:105B9800044B1B68DB0703D5034B1878FFF7F6BEE9
:105BA800704700BF54140020601400202DE9F04114
:105BB80007460C46FDF76CF920B9012C04D01DD31B
:105BC800022C25D0BDE8F081134D6A782C7842B1BB
:105BD800124E134832464FF40041FDF789FD00B9D3
:105BE8003770104BAA781A70002CEBD00E4B1B683C
:105BF800002BE7D02046BDE8F04118470848FDF7DC
:105C0800BBFD054B9C78074B1B78A342DAD1EBE729
:105C1800014B5C78E8E700BF50140020ED1300202A
:105C280010140020611400205C1400200221007868
:105C3800FFF7BCBF044B1B6813F0010301D0FFF74B
:105C4800A5BE1846704700BF5414002038B5194B3C
:105C58001860194B10F002040546196014D0174B50
:105C680017480E221A70012140F26662FDF742FAC7
:105C7800044648B9FDF792FA044628B90146114A84
:105C88001148FDF723FD0446EB0711D50120FDF768
:105C980005F96CB921460D4A0D48FDF717FD044674
:105CA80030B90C4A0C480121BDE83840FDF70EBD5B
:105CB800204638BD541400205C14002050140020E5
:105CC800D0790100355C0100DC790100995B0100A5
:105CD800E079010061590100D8790100FEF78CB91B
:105CE800094A08B5138D01335B103F2B01DD13857D
:105CF80008BD002305481385FDF73EFD0028F7D0B1
:105D0800BDE80840FDF760BA68140020A814002018
:105D18002DE9F84FFDF740FD2A4D29688146FDF72A
:105D280041FD4FF47A7A0AFB00FA4FEADA34B4F507
:105D3800967FA84644D32448FDF71EFD08B1FDF719
:105D480043FA224D2B6B01332B63214B4FF4FA7628
:105D5800186800271021B346BC46E1FB00BC4FF48D
:105D68007A7200236146584600F050FBEB6A1844EB
:105D7800174BE862D3F800E04FF4807C4FEA1A40F2
:105D8800002122460023ECFB0E0100F03FFB6400DB
:105D98004FF40041E1FB046728854FF47A72C8F894
:105DA800009000233046394600F030FB00220146BF
:105DB8000548FDF79DFC18B1BDE8F84FFDF704BA9A
:105DC800BDE8F88F64140020A8140020681400208F
:105DD800A80B00201F2803D1022901D1FFF798BF83
:105DE80070470E38012801D8FFF792BF70470000AE
:105DF80007B54FF400410020FCF792FC08B1FDF70D
:105E0800E3F9FCF7C5FBFDF731FC08B1FDF7DCF958
:105E180041490320FFF71AFFFEF7B2F8044620B104
:105E2800FDF7D2F92046FDF7CFF93C4C1021207838
:105E3800FFF776FD08B1FDF7C7F900F037FA08B1AA
:105E4800FDF7C2F900F0B8FA08B1FDF7BDF9002076
:105E5800FFF7D4F908B1FDF7B7F9314A31492F48AE
:105E6800FFF7E6FA08B1FDF7AFF92F4B2F4A19688B
:105E7800C4F81A10083333F8041C918093E803001F
:105E8800237E03F0C00343F00603951D2376912378
:105E980085E803002374A2F11A00FFF711FB08B18B
:105EA800FDF792F9FFF748FD08B1FDF78DF9FEF708
:105EB80031FA20B9FEF7F6F908B1FDF785F90023A4
:105EC800ADF804301A4A022301A91F208DF80430C6
:105ED8008DF80630FEF728FA08B1FDF775F90121AB
:105EE8001F20FEF7A7FA134A13480121FDF7EEFB1E
:105EF80008B1FDF769F91148114B1249C01AC008D9
:105F0800000440F00300FCF7D1FDFCF763FC002817
:105F1800FBD1FEF74BF8F8E7EB5D010068140020B1
:105F2800007A0100F4790100E4790100821400206C
:105F3800DD5D0100E95C01000C7A0100FC660100EE
:105F4800BC660100107A01000C4B1B78062B10D19F
:105F58000B4B1B681A070CD10A4B186800F0F003AA
:105F6800302B08D000F0E000A0F14003584258411F
:105F78007047002070470120704700BFE00F00F015
:105F8800E40F00F0E80F00F0094B1B78062B0CD14A
:105F9800084B1B681A0708D1074B186800F0F00077
:105FA800A0F130035842584170470020704700BFA5
:105FB800E00F00F0E40F00F0E80F00F008B5FFF77D
:105FC800C3FF28B17D4B7E4A1B68C3F304231360CB
:105FD800FFF7DAFF10B17B4B7B4A1A60FFF7B4FF7B
:105FE80028B17A4B7A4A1B68C3F342331360FFF730
:105FF800CBFF20B1774AD36823F08073D360FFF7D3
:10600800A3FF40B14FF080430022C3F80C21C3F82E
:106018001021C3F83825FFF7B7FF10B16E4B0322E4
:106028001A60FFF7B1FF40B16C4B05221A600122DC
:106038009A6700229A603F225A60694B1B78062BA8
:1060480050D1684B1B6819074CD1674B1B6803F08C
:10605800F003502B46D14FF08052644BD2F8041411
:10606800C3F82015D2F80814C3F82415D2F80C1474
:10607800C3F82815D2F81014C3F82C15D2F8141444
:10608800C3F83015D2F81814C3F83415D2F81C1414
:10609800C3F84015D2F82014C3F84415D2F82414D4
:1060A800C3F84815D2F82814C3F84C15D2F82C14A4
:1060B800C3F85015D2F83014C3F85415D2F8341474
:1060C800C3F86015D2F83814C3F86415D2F83C1434
:1060D800C3F86815D2F84014C3F86C15D2F84424F4
:1060E800C3F87025FFF730FF28B1414B414A1B68C0
:1060F80003F04F031360FFF727FF48B14FF08043C9
:10610800D3F80024D20744BF6FF00102C3F800247B
:10611800394B1B68062B08D1384B1B68062B01BF6F
:10612800374A136843F480631360364AD2F88830DC
:1061380043F47003C2F88830BFF34F8FBFF36F8FFB
:106148004FF01023D3F80022002A03DBD3F80432DF
:10615800002B2FDA2C4B0122C3F80425D3F8002496
:10616800002AFBD04FF010221521C2F80012D3F8F4
:106178000024002AFBD04FF010231522C3F8042274
:10618800214B1A46D3F800140029FBD00021C3F88C
:106198000415D2F80034002BFBD0BFF34F8F1949F8
:1061A8001A4BCA6802F4E0621343CB60BFF34F8F07
:1061B80000BFFDE7164B174A1A6008BD24030010FC
:1061C8004035014074C007400DF0ADBA44020010DC
:1061D8003C050040F0ED00E0A005004010560040EE
:1061E800E00F00F0E40F00F0E80F00F000C00040FE
:1061F80058020010E40E0040300100103401001075
:106208003C17004000ED00E000E001400400FA0502
:10621800AC0B00200090D00310DF704713B5044684
:1062280009496846FDF74DFF019808B902B010BD4D
:10623800D0E900312046984718B16846FDF74BFF72
:10624800F2E71120F2E700BF5C7A010013B50446BB
:1062580007496846FDF735FF019B0BB902B010BD31
:106268002046D3E9002190476846FDF734FFF3E75D
:10627800747A01000B4991F816335A09EC2313413B
:10628800DB0706D5084B9A683AB94FF480030B60D0
:10629800704742F20200FCF797BF1A6842F4800286
:1062A8001A60704700E100E0F8120020F7B5194FB6
:1062B8003C7864BB184E012520463570FFF7AEFFC9
:1062C800112821D02046FFF7C1FF144B1868019010
:1062D80002A800F8054DFDF769FA114A114901A80D
:1062E800FFF79AFF0446B0FA80F0400938709DF82D
:1062F8000300FDF77FFA3CB90B4B34701C70FFF7B5
:10630800B9FF2846FFF7A2FF204603B0F0BD0824D6
:10631800FAE700BFC9140020C81400202E7A010033
:10632800327A0100ED310100CA140020014B1878BF
:10633800704700BFC914002007B508496846FDF733
:10634800C0FE019B13B903B05DF804FBD3E900203C
:1063580090476846FDF7BFFEF3E700BF687A010083
:10636800FFF7EABFC1DF7047FADF704710B5104B7F
:106378001B788EB0D3B10F4C02AA0DF135010DA8D0
:10638800FFF7F0FF70B921466846FDF79AFE019BBA
:10639800002BF1D002A8D3E9002190476846FDF709
:1063A8009AFEF4E7052801D0FCF70EFF0EB010BDE9
:1063B8004C150020B47A01001FB50F4A07CA01AB7B
:1063C80083E807001846FFF7CFFF044628B90B4BB0
:1063D80001221A70204604B010BDFDF7A7FE084A36
:1063E800084B09499B1ADB081B04024643F00100CD
:1063F800FCF760FBEEE700BF887A01004C1500202F
:10640800BC66010014670100947A010053EA020C8B
:1064180061D02DE9F04BB3FA83F51E0007BFB2FA3D
:1064280082F502FA05F403FA05F41646C5F12005CB
:106438001EBF22FA05F73C43203556EA044C4FEAC2
:10644800144418BF0134A3464FF00009C8469042CF
:1064580071EB030C39D3094207BFB0FA80F700FA91
:1064680007F6B1FA81F701FA07F6C7F120071EBF50
:1064780020FA07FC46EA0C062037B6FBFBFC7F1B1C
:10648800103F07F01F04C4F120060CFA04F42CFA9C
:1064980006F644BF34460026202FA4BF2646002413
:1064A80054EA060C08BF012418EB040849EB060956
:1064B800A4FB027CC01B06FB02CC04FB03CC71EBE3
:1064C8000C01904271EB030CC5D20B4602464946BB
:1064D8004046BDE8F08BB2FBF3F200007F2805D8F8
:1064E800034B185C034B5B5C1840704700207047F7
:1064F800CC7A01004C7B0100A0F16103192B98BFF5
:1065080020387047A0F14103192B98BF20307047FD
:106518007F2805D8034B185C034B5B5C1840704719
:1065280000207047CC7A01004C7B0100A0F1610388
:10653800192B98BF20387047A0F14103192B98BF39
:10654800203070477F299ABF017001206FF02E001C
:1065580070475AB10A787F2A0AD800B10260002130
:1065680019605960501A18BF012070470020704701
:106578006FF02E007047000008B5034B5B689B68FE
:106588001B68984708BD00BFB00B002008B509215B
:10659800FFF7F2FF08BD844640EA010313F0030F3A
:1065A80018D18446202A0BD32DE9F007B1E8F80763
:1065B800A0E8F807A2F12002202AF7D2BDE8F007E8
:1065C800042A07D351F8043B40F8043BA2F1040223
:1065D800042AF7D2002A05D011F8013B00F8013B44
:1065E800013AF9D1604670478446002A2DD010F050
:1065F800030F04D000F8011B013A26D0F7E7C9B20F
:1066080041EA012141EA0141202A12D3A2F12002E4
:106618002DE9F0030B460C460D460E460F468846FC
:106628008946A0E8FA03203AFBD2BDE8F0032032FD
:106638000BD0042A05D340F8041B043A05D0042AD9
:10664800F9D200F8011B013AFBD16046704700F10E
:10665800010110F0030F11D010F8012B002A23D0EC
:1066680010F0030F0AD010F8012B002A1CD010F0EC
:10667800030F03D010F8012B002A15D02DE9700064
:106688004FF001324FF0803350F8044BA4EB020571
:1066980025EA04051D4000D1F6E7A0F1040070BC0E
:0E66A80010F8012B002AFBD1A0EB0100704777
:0466B800B1580100D4
:1066BC0026740100000000002D7401000000000091
:1066CC00317401000000000036740100000000006D
:1066DC001C75010000000303A175010000000303F9
:1066EC0029760100000003038876010000000303F3
:1066FC00BD67010000000303026F010000000303EB
:10670C00807A010000000303C07A0100000003033B
:08671C00286F010000000000DD
:10672400C5580100000000006B54010068140020EB
:1067340080670100000000008C670100940B0020BA
:08674400756301000000000074
:10674C00080C0020D00C0020D80C0020100C0020CD
:04675C001800000021
:10676000FFFFFFFFFFFFFFFFFFFFFFFFFFFFFFFF39
:1067700000000000000000000000D601060100003B
:106780000125010065250100B124010075617274C5
:106790005F6C6F675F6261636B656E640000000031
:1067A000FC1000207F0000007C1100204261636B20
:1067B000656E647320666C757368656400617070E3
:1067C00000000000F367010038680100F86701006D
:1067D00040680100486801005068010058680100E5
:1067E00060680100686801002025303278007C0074
:1067F0002563001B5B306D001B5B313B33316D004B
:1068000025734C6F67732064726F70706564202805
:1068100025642925730D0A003C25733E2025733A13
:106820002000000000000000926801007068010074
:10683000786801007D6801001B5B313B33306D00DF
:106840001B5B313B33326D001B5B313B33336D00DF
:106850001B5B313B33346D001B5B313B33356D00CB
:106860001B5B313B33366D001B5B313B33376D00B7
:106870007761726E696E6700696E666F006465624B
:106880007567000608290C009C11002046617461A0
:106890006C206572726F720053797374656D20722B
:1068A0006573657400000000000000000000000037
:1068B0000338FDD8704748415244204641554C5456
:1068C0002061742030782530385800202052303A2A
:1068D0002020307825303858202052313A2020307E
:1068E0007825303858202052323A20203078253010
:1068F0003858202052333A2020307825303858003C
:1069000020205231323A2030782530385820204C1F
:10691000523A202030782530385820205053523AAF
:106920002030782530385800537461636B207669C5
:106930006F6C6174696F6E3A20737461636B207061
:106940006F696E746572206F757473696465207306
:106950007461636B20617265612E004361757365BC
:106960003A204275734661756C74206F6E20612009
:10697000766563746F72207461626C652072656104
:106980006420647572696E672065786365707469E8
:106990006F6E2070726F63657373696E672E00434C
:1069A000617573653A2025732E004D656D4D616EDE
:1069B000616765204661756C74204164647265731B
:1069C000733A20307825303858004275732046617C
:1069D000756C7420416464726573733A2030782555
:1069E000303858004C6A01008C6A01000000000039
:1069F000E56A01002E6B0100776B010000000000CA
:106A000000000000C06B0100D66B0100416C01006A
:106A1000AC6C0100ED6C01002E6D01000000000067
:106A2000000000004C6A0100716D0100CA6D010098
:106A3000516E010000000000000000000000000096
:106A400000000000856E0100B76E010054686520EB
:106A500070726F636573736F722068617320617405
:106A600074656D7074656420746F206578656375F6
:106A7000746520616E20756E646566696E6564205C
:106A8000696E737472756374696F6E005468652003
:106A900070726F636573736F7220617474656D706B
:106AA0007465642061206C6F6164206F7220737460
:106AB0006F72652061742061206C6F636174696F0F
:106AC0006E207468617420646F6573206E6F74202B
:106AD0007065726D697420746865206F706572618D
:106AE00074696F6E00556E737461636B20666F72AC
:106AF00020616E20657863657074696F6E207265C1
:106B00007475726E206861732063617573656420AB
:106B10006F6E65206F72206D6F72652061636365B3
:106B200073732076696F6C6174696F6E7300537450
:106B300061636B696E6720666F7220616E20657895
:106B400063657074696F6E20656E74727920686118
:106B50007320636175736564206F6E65206F7220AA
:106B60006D6F7265206163636573732076696F6C06
:106B70006174696F6E730041204D656D4D616E618A
:106B80006765206661756C74206F636375727265EA
:106B90006420647572696E6720666C6F6174696EDB
:106BA000672D706F696E74206C617A7920737461DF
:106BB000746520707265736572766174696F6E00BA
:106BC000496E737472756374696F6E206275732099
:106BD0006572726F72004461746120627573206522
:106BE00072726F72202850432076616C7565207335
:106BF0007461636B656420666F72207468652065DC
:106C00007863657074696F6E2072657475726E203A
:106C1000706F696E747320746F2074686520696E7C
:106C2000737472756374696F6E2074686174206325
:106C3000617573656420746865206661756C74297C
:106C4000004461746120627573206572726F7220F6
:106C50002872657475726E20616464726573732046
:106C6000696E2074686520737461636B206672615D
:106C70006D65206973206E6F742072656C61746538
:106C80006420746F2074686520696E737472756314
:106C900074696F6E207468617420636175736564D4
:106CA00020746865206572726F722900556E737466
:106CB00061636B20666F7220616E2065786365701A
:106CC00074696F6E2072657475726E2068617320CE
:106CD000636175736564206F6E65206F72206D6FE0
:106CE0007265204275734661756C747300537461EC
:106CF000636B696E6720666F7220616E20657863D2
:106D0000657074696F6E20656E7472792068617346
:106D100020636175736564206F6E65206F72206DEE
:106D20006F7265204275734661756C747300412003
:106D3000627573206661756C74206F63637572721F
:106D4000656420647572696E6720666C6F61746932
:106D50006E672D706F696E74206C617A7920737420
:106D600061746520707265736572766174696F6EA7
:106D7000005468652070726F636573736F7220686A
:106D8000617320617474656D7074656420746F2024
:106D90006578656375746520616E20696E737472C1
:106DA000756374696F6E2074686174206D616B65C2
:106DB0007320696C6C6567616C20757365206F6604
:106DC00020746865204550535200546865207072E5
:106DD0006F636573736F722068617320617474658B
:106DE0006D7074656420616E20696C6C6567616CA0
:106DF000206C6F6164206F66204558435F52455494
:106E000055524E20746F207468652050432C2061C9
:106E100073206120726573756C74206F6620616EDB
:106E200020696E76616C696420636F6E7465787436
:106E30002C206F7220616E20696E76616C6964200F
:106E40004558435F52455455524E2076616C7565E6
:106E5000005468652070726F636573736F72206889
:106E6000617320617474656D7074656420746F2043
:106E7000616363657373206120636F70726F636514
:106E800073736F72005468652070726F63657373FB
:106E90006F7220686173206D61646520616E20757A
:106EA0006E616C69676E6564206D656D6F727920C7
:106EB000616363657373005468652070726F636506
:106EC00073736F722068617320657865637574658C
:106ED0006420616E2053444956206F722055444906
:106EE0005620696E737472756374696F6E2077696A
:106EF000746820612064697669736F72206F662000
:106F00003000686172646661756C740030313233D0
:106F1000343536373839414243444546B866010076
:106F2000BC660100040000007077725F6D676D74CD
:106F300000556E6B6E6F776E206572726F72206394
:106F40006F646500000000006C700100010000002B
:106F5000787001000200000096700100030000003C
:106F6000B770010004000000CA70010005000000B5
:106F7000DB70010006000000EF7001000700000058
:106F800007710100080000001F71010009000000E6
:106F9000377101000A000000507101000B00000071
:106FA000687101000C0000007F7101000D000000FD
:106FB000937101000E000000A57101000F00000098
:106FC000B471010010000000C87101001100000040
:106FD000DF71010012000000EE71010013000000DB
:106FE00003720100800000001772010081000000A0
:106FF000387201008200000054720100830000001A
:1070000070720100840000008E7201008500000093
:10701000AF72010086000000D472010090000000F1
:10702000EB72010091000000097301009200000062
:1070300027730100008200003C7301000182000000
:107040005A73010002820000767301000084000080
:107050009273010001840000B673010002840000F5
:10706000E073010003840000057401004E52465F86
:1070700053554343455353004E52465F4552524F7A
:10708000525F5356435F48414E444C45525F4D4911
:107090005353494E47004E52465F4552524F525F3E
:1070A000534F46544445564943455F4E4F545F4500
:1070B0004E41424C4544004E52465F4552524F525B
:1070C0005F494E5445524E414C004E52465F455228
:1070D000524F525F4E4F5F4D454D004E52465F45F9
:1070E00052524F525F4E4F545F464F554E44004EE2
:1070F00052465F4552524F525F4E4F545F53555068
:10710000504F52544544004E52465F4552524F52E2
:107110005F494E56414C49445F504152414D004EEB
:1071200052465F4552524F525F494E56414C494478
:107130005F5354415445004E52465F4552524F52A0
:107140005F494E56414C49445F4C454E47544800B8
:107150004E52465F4552524F525F494E56414C493E
:10716000445F464C414753004E52465F4552524F92
:10717000525F494E56414C49445F44415441004E90
:1071800052465F4552524F525F444154415F53490A
:107190005A45004E52465F4552524F525F54494D38
:1071A000454F5554004E52465F4552524F525F4E26
:1071B000554C4C004E52465F4552524F525F464F1F
:1071C0005242494444454E004E52465F4552524F4A
:1071D000525F494E56414C49445F41444452004E2F
:1071E00052465F4552524F525F42555359004E52DC
:1071F000465F4552524F525F434F4E4E5F434F558D
:107200004E54004E52465F4552524F525F524553C4
:107210004F5552434553004E52465F4552524F52CE
:107220005F4D4F44554C455F4E4F545F494E495456
:1072300049414C495A4544004E52465F4552524FCF
:10724000525F4D555445585F494E49545F46414938
:107250004C4544004E52465F4552524F525F4D5589
:107260005445585F4C4F434B5F4641494C454400A1
:107270004E52465F4552524F525F4D555445585FEE
:10728000554E4C4F434B5F4641494C4544004E528E
:10729000465F4552524F525F4D555445585F434FDC
:1072A0004E445F494E49545F4641494C4544004E67
:1072B00052465F4552524F525F4D4F44554C455FC9
:1072C000414C52454144595F494E495449414C490A
:1072D0005A4544004E52465F4552524F525F5354F6
:1072E0004F524147455F46554C4C004E52465F4514
:1072F00052524F525F4150495F4E4F545F494D507B
:107300004C454D454E544544004E52465F45525201
:107310004F525F464541545552455F4E4F545F456D
:107320004E41424C4544004E52465F4552524F52E8
:107330005F494F5F50454E44494E47004E52465FAD
:107340004552524F525F4452565F5457495F45521F
:10735000525F4F56455252554E004E52465F45526F
:10736000524F525F4452565F5457495F4552525FE5
:10737000414E41434B004E52465F4552524F525F81
:107380004452565F5457495F4552525F444E414301
:107390004B004E52465F4552524F525F424C455F42
:1073A000495053505F52585F504B545F5452554EA2
:1073B0004341544544004E52465F4552524F525F3E
:1073C000424C455F495053505F4348414E4E454CF7
:1073D0005F414C52454144595F455849535453000D
:1073E0004E52465F4552524F525F424C455F4950A4
:1073F00053505F4C494E4B5F444953434F4E4E45AB
:1074000043544544004E52465F4552524F525F42EC
:107410004C455F495053505F504545525F52454A75
:107420004543544544004750494F5445005052533A
:107430000055415254005541525445005061676512
:10744000202564207265717565737400547279200B
:10745000746F2073656E6420756E74696C2041438F
:107460004B00496E76616C69642072657175657355
:10747000746564207472616E736D697373696F6E85
:1074800020726573706F6E736500416E73776572FD
:1074900020776974682061636B6E6F776C656467D1
:1074A0006564206D657373616765730052657175FE
:1074B0006573746564206E756D626572206F6620F9
:1074C0007472616E736D697373696F6E733A2025A0
:1074D0006400526571756573742044617461205055
:1074E000616765005265717565737420414E542D56
:1074F00046532053657373696F6E00496E76616CF5
:107500006964207265717565737400446573637294
:107510006970746F722025780D0A0A00616E745FBD
:10752000636F6D6D6F6E5F706167655F37300068A8
:1075300077207265766973696F6E3A20202020206B
:10754000202020202020202020202020202020203B
:10755000202575006D616E75666163747572657264
:107560002069643A20202020202020202020202074
:107570002020202020202575006D6F64656C206E12
:10758000756D6265723A2020202020202020202066
:10759000202020202020202020202025750D0A0AD0
:1075A00000616E745F636F6D6D6F6E5F70616765B4
:1075B0005F3830007377207265766973696F6E3A51
:1075C00020202020202020202020202020202020BB
:1075D00020202020202025752E257500737720720D
:1075E00065766973696F6E3A202020202020202064
:1075F0002020202020202020202020202020257531
:107600000073657269616C206E756D6265723A20F7
:10761000202020202020202020202020202020206A
:1076200020202025750D0A0A00616E745F636F6D5E
:107630006D6F6E5F706167655F383100FFFF00003E
:10764000FFFFFFFF414E542053444D206368616E9D
:107650006E656C202575206F70656E00414E54205C
:1076600053444D206368616E6E656C2025752069FA
:107670006E69740053444D2050616765206E756DCE
:107680006265723A20257500616E745F73646D00E7
:107690005370656564202020202020202020202099
:1076A00020202020202020202020202020202020DA
:1076B0002020202020202020202020202025752E62
:1076C00025303275206D2F730D0A0A0055706461E4
:1076D0007465206C6174656E637920202020202001
:1076E000202020202020202020202020202020209A
:1076F000202025752E2530337520730054696D6563
:107700002020202020202020202020202020202079
:107710002020202020202020202020202020202069
:10772000202025752E25303375207300446973742D
:10773000616E636520202020202020202020202032
:107740002020202020202020202020202020202039
:10775000202025752E253031756D200053747269F7
:10776000646573202020202020202020202020203D
:107770002020202020202020202020202020202009
:10778000202025750044697374616E636520202094
:1077900020202020202020202020202020202020E9
:1077A0002020202020202020202025752E2530314B
:1077B00075206D0053747269646573202020202049
:1077C00020202020202020202020202020202020B9
:1077D00020202020202020202025750D0A0A0000CE
:1077E0002079010024790100297901002C79010018
:1077F000297901003079010036790100CB7601004A
:10780000067901000C790100147901001A79010050
:107810003E79010047790100CB760100CB7601006B
:107820005374617475733A0073746174653A2020FF
:107830002020202020202020202020202020202048
:1078400020202020202020202020202020202573E0
:10785000006865616C74683A202020202020202078
:107860002020202020202020202020202020202018
:10787000202020202020202573006261747465720E
:10788000793A202020202020202020202020202085
:1078900020202020202020202020202020202020E8
:1078A0002573006C6F636174696F6E3A202020202D
:1078B00020202020202020202020202020202020C8
:1078C0002020202020202020202573004361646593
:1078D0006E636520202020202020202020202020D2
:1078E0002020202020202020202020202020202098
:1078F000202025752E2530317520737472696465DA
:10790000732F6D696E004C61636573004D6964731C
:107910006F6C65004F7468657200416E6B6C65003A
:107920004E657700476F6F64004F4B004C6F7700D8
:107930004572726F72005761726E696E6700496EB0
:1079400061637469766500416374697665004361BB
:10795000706162696C69746965733A202020202027
:107960002020202020202020202020202020202017
:107970002020002074696D65002064697374616E55
:1079800063650020737065656400206C6174656ECA
:1079900063790020636164656E6365002063616CD8
:1079A0006F726965730043616C6F726965733A2029
:1079B00020202020202020202020202020202020C7
:1079C000202020202020202025750D0A0A000000FC
:1079D00026000300B55B0100F01300201014002006
:1079E000301400207F00AAAA55550000FFAA00000D
:1079F00087D6120000100039057C0100C61F000068
:107A0000010000009C140020E55C0100A814002087
:107A100054726561646D696C6C2027466F6F7420C9
:107A2000506F642720737461727465642E000100C6
:107A30000007333833312D353231642D37646639E0
:107A40002D323464382D656666332D343637622D19
:107A5000323235662D613030650000004C67010020
:107A60004C67010008000000446701004C670100FA
:107A7000080000004C6701004C670100080000008E
:107A80006E72665F7364680001002000CC140020F1
:107A90008000000073645F616E745F656E61626C8C
:107AA0006528292072657475726E65642025732EB1
:107AB0000000000024670100346701000800000096
:107AC0006E72665F7364685F616E740020202020B0
